{
  "contractName": "Casino",
  "abi": [
    {
      "constant": true,
      "inputs": [],
      "name": "maxNumberOfBets",
      "outputs": [
        {
          "name": "",
          "type": "uint256"
        }
      ],
      "payable": false,
      "stateMutability": "view",
      "type": "function"
    },
    {
      "constant": true,
      "inputs": [],
      "name": "numberOfBets",
      "outputs": [
        {
          "name": "",
          "type": "uint256"
        }
      ],
      "payable": false,
      "stateMutability": "view",
      "type": "function"
    },
    {
      "constant": true,
      "inputs": [],
      "name": "winningNumber",
      "outputs": [
        {
          "name": "",
          "type": "uint256"
        }
      ],
      "payable": false,
      "stateMutability": "view",
      "type": "function"
    },
    {
      "constant": true,
      "inputs": [],
      "name": "maximumBets",
      "outputs": [
        {
          "name": "",
          "type": "uint256"
        }
      ],
      "payable": false,
      "stateMutability": "view",
      "type": "function"
    },
    {
      "constant": true,
      "inputs": [
        {
          "name": "",
          "type": "uint256"
        },
        {
          "name": "",
          "type": "uint256"
        }
      ],
      "name": "bets",
      "outputs": [
        {
          "name": "",
          "type": "address"
        }
      ],
      "payable": false,
      "stateMutability": "view",
      "type": "function"
    },
    {
      "constant": true,
      "inputs": [],
      "name": "owner",
      "outputs": [
        {
          "name": "",
          "type": "address"
        }
      ],
      "payable": false,
      "stateMutability": "view",
      "type": "function"
    },
    {
      "constant": true,
      "inputs": [],
      "name": "minimumBet",
      "outputs": [
        {
          "name": "",
          "type": "uint256"
        }
      ],
      "payable": false,
      "stateMutability": "view",
      "type": "function"
    },
    {
      "constant": true,
      "inputs": [
        {
          "name": "",
          "type": "address"
        }
      ],
      "name": "playerBets",
      "outputs": [
        {
          "name": "",
          "type": "uint256"
        }
      ],
      "payable": false,
      "stateMutability": "view",
      "type": "function"
    },
    {
      "constant": true,
      "inputs": [
        {
          "name": "",
          "type": "uint256"
        }
      ],
      "name": "players",
      "outputs": [
        {
          "name": "",
          "type": "address"
        }
      ],
      "payable": false,
      "stateMutability": "view",
      "type": "function"
    },
    {
      "inputs": [
        {
          "name": "_minimumBet",
          "type": "uint256"
        },
        {
          "name": "_maxNumberOfBets",
          "type": "uint256"
        }
      ],
      "payable": false,
      "stateMutability": "nonpayable",
      "type": "constructor"
    },
    {
      "anonymous": false,
      "inputs": [
        {
          "indexed": false,
          "name": "randomNumber",
          "type": "string"
        }
      ],
      "name": "generatedRandomNumber",
      "type": "event"
    },
    {
      "anonymous": false,
      "inputs": [
        {
          "indexed": false,
          "name": "description",
          "type": "string"
        }
      ],
      "name": "LogNewProvableQuery",
      "type": "event"
    },
    {
      "constant": false,
      "inputs": [
        {
          "name": "numberToBet",
          "type": "uint256"
        }
      ],
      "name": "bet",
      "outputs": [],
      "payable": true,
      "stateMutability": "payable",
      "type": "function"
    },
    {
      "constant": false,
      "inputs": [],
      "name": "generateWinningNumber",
      "outputs": [],
      "payable": true,
      "stateMutability": "payable",
      "type": "function"
    },
    {
      "constant": false,
      "inputs": [
        {
          "name": "_myid",
          "type": "bytes32"
        },
        {
          "name": "_result",
          "type": "string"
        }
      ],
      "name": "__callback",
      "outputs": [],
      "payable": false,
      "stateMutability": "nonpayable",
      "type": "function"
    },
    {
      "constant": false,
      "inputs": [
        {
          "name": "_queryID",
          "type": "bytes32"
        },
        {
          "name": "_result",
          "type": "string"
        },
        {
          "name": "_proof",
          "type": "bytes"
        }
      ],
      "name": "__callback",
      "outputs": [],
      "payable": false,
      "stateMutability": "nonpayable",
      "type": "function"
    },
    {
      "constant": false,
      "inputs": [],
      "name": "distributePrizes",
      "outputs": [],
      "payable": false,
      "stateMutability": "nonpayable",
      "type": "function"
    },
    {
      "constant": true,
      "inputs": [],
      "name": "getContractBalance",
      "outputs": [
        {
          "name": "balance",
          "type": "uint256"
        }
      ],
      "payable": false,
      "stateMutability": "view",
      "type": "function"
    }
  ],
  "bytecode": "0x608060405267016345785d8a0000600655678ac7230489e8000060075560646009553480156200002e57600080fd5b5060405160408062005275833981018060405260408110156200005057600080fd5b81019080805190602001909291908051906020019092919050505033600560006101000a81548173ffffffffffffffffffffffffffffffffffffffff021916908373ffffffffffffffffffffffffffffffffffffffff1602179055506000821115620000be57816006819055505b6000811115620000d057806009819055505b6200010d60307f01000000000000000000000000000000000000000000000000000000000000000262000115640100000000026401000000009004565b505062000c1c565b600073ffffffffffffffffffffffffffffffffffffffff16600160009054906101000a900473ffffffffffffffffffffffffffffffffffffffff1673ffffffffffffffffffffffffffffffffffffffff161480620001ae57506000620001ac600160009054906101000a900473ffffffffffffffffffffffffffffffffffffffff16620004e0640100000000026401000000009004565b145b15620001d157620001cf6000620004eb640100000000026401000000009004565b505b600160009054906101000a900473ffffffffffffffffffffffffffffffffffffffff1673ffffffffffffffffffffffffffffffffffffffff166338cc48316040518163ffffffff167c0100000000000000000000000000000000000000000000000000000000028152600401602060405180830381600087803b1580156200025857600080fd5b505af11580156200026d573d6000803e3d6000fd5b505050506040513d60208110156200028457600080fd5b810190808051906020019092919050505073ffffffffffffffffffffffffffffffffffffffff166000809054906101000a900473ffffffffffffffffffffffffffffffffffffffff1673ffffffffffffffffffffffffffffffffffffffff16141515620003ef57600160009054906101000a900473ffffffffffffffffffffffffffffffffffffffff1673ffffffffffffffffffffffffffffffffffffffff166338cc48316040518163ffffffff167c0100000000000000000000000000000000000000000000000000000000028152600401602060405180830381600087803b1580156200037257600080fd5b505af115801562000387573d6000803e3d6000fd5b505050506040513d60208110156200039e57600080fd5b81019080805190602001909291905050506000806101000a81548173ffffffffffffffffffffffffffffffffffffffff021916908373ffffffffffffffffffffffffffffffffffffffff1602179055505b6000809054906101000a900473ffffffffffffffffffffffffffffffffffffffff1673ffffffffffffffffffffffffffffffffffffffff1663688dcfd7826040518263ffffffff167c010000000000000000000000000000000000000000000000000000000002815260040180827effffffffffffffffffffffffffffffffffffffffffffffffffffffffffffff19167effffffffffffffffffffffffffffffffffffffffffffffffffffffffffffff19168152602001915050600060405180830381600087803b158015620004c457600080fd5b505af1158015620004d9573d6000803e3d6000fd5b5050505050565b6000813b9050919050565b6000620005066200050d640100000000026401000000009004565b9050919050565b6000806200053e731d3b2638a7cc9f2cb3d298a3da7a90b67e5506ed620004e0640100000000026401000000009004565b1115620005f357731d3b2638a7cc9f2cb3d298a3da7a90b67e5506ed600160006101000a81548173ffffffffffffffffffffffffffffffffffffffff021916908373ffffffffffffffffffffffffffffffffffffffff160217905550620005e96040805190810160405280600b81526020017f6574685f6d61696e6e657400000000000000000000000000000000000000000081525062000b51640100000000026401000000009004565b6001905062000b4e565b60006200062373c03a2615d5efaf5f49f60b7bb6583eaec212fdf1620004e0640100000000026401000000009004565b1115620006d85773c03a2615d5efaf5f49f60b7bb6583eaec212fdf1600160006101000a81548173ffffffffffffffffffffffffffffffffffffffff021916908373ffffffffffffffffffffffffffffffffffffffff160217905550620006ce6040805190810160405280600c81526020017f6574685f726f707374656e33000000000000000000000000000000000000000081525062000b51640100000000026401000000009004565b6001905062000b4e565b60006200070873b7a07bcf2ba2f2703b24c0691b5278999c59ac7e620004e0640100000000026401000000009004565b1115620007bd5773b7a07bcf2ba2f2703b24c0691b5278999c59ac7e600160006101000a81548173ffffffffffffffffffffffffffffffffffffffff021916908373ffffffffffffffffffffffffffffffffffffffff160217905550620007b36040805190810160405280600981526020017f6574685f6b6f76616e000000000000000000000000000000000000000000000081525062000b51640100000000026401000000009004565b6001905062000b4e565b6000620007ed73146500cfd35b22e4a392fe0adc06de1a1368ed48620004e0640100000000026401000000009004565b1115620008a25773146500cfd35b22e4a392fe0adc06de1a1368ed48600160006101000a81548173ffffffffffffffffffffffffffffffffffffffff021916908373ffffffffffffffffffffffffffffffffffffffff160217905550620008986040805190810160405280600b81526020017f6574685f72696e6b65627900000000000000000000000000000000000000000081525062000b51640100000000026401000000009004565b6001905062000b4e565b6000620008d273a2998efd205fb9d4b4963afb70778d6354ad3a41620004e0640100000000026401000000009004565b1115620009875773a2998efd205fb9d4b4963afb70778d6354ad3a41600160006101000a81548173ffffffffffffffffffffffffffffffffffffffff021916908373ffffffffffffffffffffffffffffffffffffffff1602179055506200097d6040805190810160405280600a81526020017f6574685f676f65726c690000000000000000000000000000000000000000000081525062000b51640100000000026401000000009004565b6001905062000b4e565b6000620009b7736f485c8bf6fc43ea212e93bbf8ce046c7f1cb475620004e0640100000000026401000000009004565b111562000a1d57736f485c8bf6fc43ea212e93bbf8ce046c7f1cb475600160006101000a81548173ffffffffffffffffffffffffffffffffffffffff021916908373ffffffffffffffffffffffffffffffffffffffff1602179055506001905062000b4e565b600062000a4d7320e12a1f859b3feae5fb2a0a32c18f5a65555bbf620004e0640100000000026401000000009004565b111562000ab3577320e12a1f859b3feae5fb2a0a32c18f5a65555bbf600160006101000a81548173ffffffffffffffffffffffffffffffffffffffff021916908373ffffffffffffffffffffffffffffffffffffffff1602179055506001905062000b4e565b600062000ae37351efaf4c8b3c9afbd5ab9f4bbc82784ab6ef8faa620004e0640100000000026401000000009004565b111562000b49577351efaf4c8b3c9afbd5ab9f4bbc82784ab6ef8faa600160006101000a81548173ffffffffffffffffffffffffffffffffffffffff021916908373ffffffffffffffffffffffffffffffffffffffff1602179055506001905062000b4e565b600090505b90565b806002908051906020019062000b6992919062000b6d565b5050565b828054600181600116156101000203166002900490600052602060002090601f016020900481019282601f1062000bb057805160ff191683800117855562000be1565b8280016001018555821562000be1579182015b8281111562000be057825182559160200191906001019062000bc3565b5b50905062000bf0919062000bf4565b5090565b62000c1991905b8082111562000c1557600081600090555060010162000bfb565b5090565b90565b6146498062000c2c6000396000f3fe6080604052600436106100db576000357c0100000000000000000000000000000000000000000000000000000000900463ffffffff1680631dc68cdd146100e057806325c05609146100ea57806327dc297e146101155780632ca8c6d3146101e757806338bbfa50146102125780634664611e1461037b5780635d5391d5146103a65780636a09f6be146103d15780636f9fb98a146104565780637365870b146104815780637ce52eb6146104af5780638da5cb5b146104c6578063c38a8afd1461051d578063c7aa327b14610548578063f71d96cb146105ad575b600080fd5b6100e8610628565b005b3480156100f657600080fd5b506100ff6106da565b6040518082815260200191505060405180910390f35b34801561012157600080fd5b506101e56004803603604081101561013857600080fd5b81019080803590602001909291908035906020019064010000000081111561015f57600080fd5b82018360208201111561017157600080fd5b8035906020019184600183028401116401000000008311171561019357600080fd5b91908080601f016020809104026020016040519081016040528093929190818152602001838380828437600081840152601f19601f8201169050808301925050505050505091929192905050506106e0565b005b3480156101f357600080fd5b506101fc610723565b6040518082815260200191505060405180910390f35b34801561021e57600080fd5b506103796004803603606081101561023557600080fd5b81019080803590602001909291908035906020019064010000000081111561025c57600080fd5b82018360208201111561026e57600080fd5b8035906020019184600183028401116401000000008311171561029057600080fd5b91908080601f016020809104026020016040519081016040528093929190818152602001838380828437600081840152601f19601f820116905080830192505050505050509192919290803590602001906401000000008111156102f357600080fd5b82018360208201111561030557600080fd5b8035906020019184600183028401116401000000008311171561032757600080fd5b91908080601f016020809104026020016040519081016040528093929190818152602001838380828437600081840152601f19601f820116905080830192505050505050509192919290505050610729565b005b34801561038757600080fd5b50610390610994565b6040518082815260200191505060405180910390f35b3480156103b257600080fd5b506103bb61099a565b6040518082815260200191505060405180910390f35b3480156103dd57600080fd5b50610414600480360360408110156103f457600080fd5b8101908080359060200190929190803590602001909291905050506109a0565b604051808273ffffffffffffffffffffffffffffffffffffffff1673ffffffffffffffffffffffffffffffffffffffff16815260200191505060405180910390f35b34801561046257600080fd5b5061046b6109ed565b6040518082815260200191505060405180910390f35b6104ad6004803603602081101561049757600080fd5b8101908080359060200190929190505050610a0c565b005b3480156104bb57600080fd5b506104c4610dfb565b005b3480156104d257600080fd5b506104db610f35565b604051808273ffffffffffffffffffffffffffffffffffffffff1673ffffffffffffffffffffffffffffffffffffffff16815260200191505060405180910390f35b34801561052957600080fd5b50610532610f5b565b6040518082815260200191505060405180910390f35b34801561055457600080fd5b506105976004803603602081101561056b57600080fd5b81019080803573ffffffffffffffffffffffffffffffffffffffff169060200190929190505050610f61565b6040518082815260200191505060405180910390f35b3480156105b957600080fd5b506105e6600480360360208110156105d057600080fd5b8101908080359060200190929190505050610f79565b604051808273ffffffffffffffffffffffffffffffffffffffff1673ffffffffffffffffffffffffffffffffffffffff16815260200191505060405180910390f35b6000809050600060079050600062061a809050610646838383610fb7565b507fc4dc360d0a9c0677a3379ae0a3d81e887f761e65fdf3d7e00859d1bcd3c473896040518080602001828103825260368152602001807f50726f7661626c65207175657279207761732073656e742c207374616e64696e81526020017f6720627920666f722074686520616e737765722e2e2e0000000000000000000081525060400191505060405180910390a1505050565b60095481565b61071f828260006040519080825280601f01601f1916602001820160405280156107195781602001600182028038833980820191505090505b50610729565b5050565b60085481565b610731611585565b73ffffffffffffffffffffffffffffffffffffffff163373ffffffffffffffffffffffffffffffffffffffff161415156107d3576040517f08c379a000000000000000000000000000000000000000000000000000000000815260040180806020018281038252600c8152602001807f4261642063616c6c6261636b000000000000000000000000000000000000000081525060200191505060405180910390fd5b60006107e08484846118f8565b60ff16141515610858576040517f08c379a00000000000000000000000000000000000000000000000000000000081526004018080602001828103825260098152602001807f4261642050726f6f66000000000000000000000000000000000000000000000081525060200191505060405180910390fd5b7f3344f5fd342f3ea7ff85f876ded3c730b7e178bb122d13c1c186a276e77b037f826040518080602001828103825283818151815260200191508051906020019080838360005b838110156108ba57808201518184015260208101905061089f565b50505050905090810190601f1680156108e75780820380516001836020036101000a031916815260200191505b509250505060405180910390a16000826040516020018082805190602001908083835b60208310151561092f578051825260208201915060208101905060208303925061090a565b6001836020036101000a0380198251168184511680821785525050505050509050019150506040516020818303038152906040528051906020012090506001600a826001900481151561097e57fe5b0601600a8190555061098e610dfb565b50505050565b600a5481565b60075481565b600d602052816000526040600020818154811015156109bb57fe5b906000526020600020016000915091509054906101000a900473ffffffffffffffffffffffffffffffffffffffff1681565b60003073ffffffffffffffffffffffffffffffffffffffff1631905090565b600954600854101515610a87576040517f08c379a00000000000000000000000000000000000000000000000000000000081526004018080602001828103825260128152602001807f426574207461626c652069732066756c6c2e000000000000000000000000000081525060200191505060405180910390fd5b60018110158015610a995750600a8111155b1515610b33576040517f08c379a00000000000000000000000000000000000000000000000000000000081526004018080602001828103825260258152602001807f43686f6f7365206120626574206e756d626572206265747765656e203120616e81526020017f642031302e00000000000000000000000000000000000000000000000000000081525060400191505060405180910390fd5b6006543410151515610bd3576040517f08c379a00000000000000000000000000000000000000000000000000000000081526004018080602001828103825260298152602001807f426574206973206c6573736572207468616e20737065636966696564206d696e81526020017f696d756d206265742e000000000000000000000000000000000000000000000081525060400191505060405180910390fd5b6000600c60003373ffffffffffffffffffffffffffffffffffffffff1673ffffffffffffffffffffffffffffffffffffffff16815260200190815260200160002054141515610cb0576040517f08c379a00000000000000000000000000000000000000000000000000000000081526004018080602001828103825260278152602001807f596f7520617265206e6f7420616c6c6f77656420746f206368616e676520796f81526020017f7572206265742e0000000000000000000000000000000000000000000000000081525060400191505060405180910390fd5b80600c60003373ffffffffffffffffffffffffffffffffffffffff1673ffffffffffffffffffffffffffffffffffffffff16815260200190815260200160002081905550600d60008281526020019081526020016000203390806001815401808255809150509060018203906000526020600020016000909192909190916101000a81548173ffffffffffffffffffffffffffffffffffffffff021916908373ffffffffffffffffffffffffffffffffffffffff16021790555050600b3390806001815401808255809150509060018203906000526020600020016000909192909190916101000a81548173ffffffffffffffffffffffffffffffffffffffff021916908373ffffffffffffffffffffffffffffffffffffffff160217905550506001600860008282540192505081905550600954600854101515610df857610df7610628565b5b50565b6000600d6000600a54815260200190815260200160002080549050141515610f33576000600d6000600a548152602001908152602001600020805490503073ffffffffffffffffffffffffffffffffffffffff1631811515610e5957fe5b04905060008090505b600d6000600a54815260200190815260200160002080549050811015610f28576000600d6000600a54815260200190815260200160002082815481101515610ea657fe5b9060005260206000200160009054906101000a900473ffffffffffffffffffffffffffffffffffffffff1690508073ffffffffffffffffffffffffffffffffffffffff166108fc849081150290604051600060405180830381858888f19350505050158015610f19573d6000803e3d6000fd5b50508080600101915050610e62565b50610f31611b10565b505b565b600560009054906101000a900473ffffffffffffffffffffffffffffffffffffffff1681565b60065481565b600c6020528060005260406000206000915090505481565b600b81815481101515610f8857fe5b906000526020600020016000915054906101000a900473ffffffffffffffffffffffffffffffffffffffff1681565b60008083118015610fc9575060208311155b1515610fd457600080fd5b600a84029350606060016040519080825280601f01601f1916602001820160405280156110105781602001600182028038833980820191505090505b509050837f01000000000000000000000000000000000000000000000000000000000000000281600081518110151561104557fe5b9060200101907effffffffffffffffffffffffffffffffffffffffffffffffffffffffffffff1916908160001a905350606060206040519080825280601f01601f1916602001820160405280156110ab5781602001600182028038833980820191505090505b509050606060206040519080825280601f01601f1916602001820160405280156110e45781602001600182028038833980820191505090505b50905060006110f1611bf9565b905060208352424118600143034018602084015260208252806020830152606060206040519080825280601f01601f1916602001820160405280156111455781602001600182028038833980820191505090505b509050886020820152606060086040519080825280601f01601f1916602001820160405280156111845781602001600182028038833980820191505090505b5090506111978260186008846000611f6c565b506111a061450a565b60806040519081016040528087815260200188815260200186815260200184815250905060006112066040805190810160405280600681526020017f72616e646f6d0000000000000000000000000000000000000000000000000000815250838c611fcd565b9050606060086040519080825280601f01601f19166020018201604052801561123e5781602001600182028038833980820191505090505b50905060208401517f0100000000000000000000000000000000000000000000000000000000000000810460278301537e01000000000000000000000000000000000000000000000000000000000000810460268301537d010000000000000000000000000000000000000000000000000000000000810460258301537c0100000000000000000000000000000000000000000000000000000000810460248301537b01000000000000000000000000000000000000000000000000000000810460238301537a010000000000000000000000000000000000000000000000000000810460228301537901000000000000000000000000000000000000000000000000008104602183015378010000000000000000000000000000000000000000000000008104602083015350611572828285600160048110151561137f57fe5b6020020151600287600060048110151561139557fe5b60200201516040518082805190602001908083835b6020831015156113cf57805182526020820191506020810190506020830392506113aa565b6001836020036101000a038019825116818451168082178552505050505050905001915050602060405180830381855afa158015611411573d6000803e3d6000fd5b5050506040513d602081101561142657600080fd5b810190808051906020019092919050505087600260048110151561144657fe5b60200201516040516020018085805190602001908083835b602083101515611483578051825260208201915060208101905060208303925061145e565b6001836020036101000a03801982511681845116808217855250505050505090500184805190602001908083835b6020831015156114d657805182526020820191506020810190506020830392506114b1565b6001836020036101000a03801982511681845116808217855250505050505090500183815260200182805190602001908083835b60208310151561152f578051825260208201915060208101905060208303925061150a565b6001836020036101000a0380198251168184511680821785525050505050509050019450505050506040516020818303038152906040528051906020012061238c565b8199505050505050505050509392505050565b60008073ffffffffffffffffffffffffffffffffffffffff16600160009054906101000a900473ffffffffffffffffffffffffffffffffffffffff1673ffffffffffffffffffffffffffffffffffffffff16148061160d5750600061160b600160009054906101000a900473ffffffffffffffffffffffffffffffffffffffff166123a8565b145b1561161e5761161c60006123b3565b505b600160009054906101000a900473ffffffffffffffffffffffffffffffffffffffff1673ffffffffffffffffffffffffffffffffffffffff166338cc48316040518163ffffffff167c0100000000000000000000000000000000000000000000000000000000028152600401602060405180830381600087803b1580156116a457600080fd5b505af11580156116b8573d6000803e3d6000fd5b505050506040513d60208110156116ce57600080fd5b810190808051906020019092919050505073ffffffffffffffffffffffffffffffffffffffff166000809054906101000a900473ffffffffffffffffffffffffffffffffffffffff1673ffffffffffffffffffffffffffffffffffffffff1614151561183557600160009054906101000a900473ffffffffffffffffffffffffffffffffffffffff1673ffffffffffffffffffffffffffffffffffffffff166338cc48316040518163ffffffff167c0100000000000000000000000000000000000000000000000000000000028152600401602060405180830381600087803b1580156117ba57600080fd5b505af11580156117ce573d6000803e3d6000fd5b505050506040513d60208110156117e457600080fd5b81019080805190602001909291905050506000806101000a81548173ffffffffffffffffffffffffffffffffffffffff021916908373ffffffffffffffffffffffffffffffffffffffff1602179055505b6000809054906101000a900473ffffffffffffffffffffffffffffffffffffffff1673ffffffffffffffffffffffffffffffffffffffff1663c281d19e6040518163ffffffff167c010000000000000000000000000000000000000000000000000000000002815260040160206040518083038186803b1580156118b857600080fd5b505afa1580156118cc573d6000803e3d6000fd5b505050506040513d60208110156118e257600080fd5b8101908080519060200190929190505050905090565b60007f4c0000000000000000000000000000000000000000000000000000000000000082600081518110151561192a57fe5b9060200101517f010000000000000000000000000000000000000000000000000000000000000090047f0100000000000000000000000000000000000000000000000000000000000000027effffffffffffffffffffffffffffffffffffffffffffffffffffffffffffff1916141580611a3f57507f50000000000000000000000000000000000000000000000000000000000000008260018151811015156119cf57fe5b9060200101517f010000000000000000000000000000000000000000000000000000000000000090047f0100000000000000000000000000000000000000000000000000000000000000027effffffffffffffffffffffffffffffffffffffffffffffffffffffffffffff191614155b80611acd5750600160ff16826002815181101515611a5957fe5b9060200101517f010000000000000000000000000000000000000000000000000000000000000090047f0100000000000000000000000000000000000000000000000000000000000000027f0100000000000000000000000000000000000000000000000000000000000000900460ff1614155b15611adb5760019050611b09565b6000611af0838686611aeb6123c4565b612466565b9050801515611b03576002915050611b09565b60009150505b9392505050565b6000600190505b600a81111515611b4f576000600d600083815260200190815260200160002081611b419190614532565b508080600101915050611b17565b5060008090505b600b80549050811015611bee576000600c6000600b84815481101515611b7857fe5b9060005260206000200160009054906101000a900473ffffffffffffffffffffffffffffffffffffffff1673ffffffffffffffffffffffffffffffffffffffff1673ffffffffffffffffffffffffffffffffffffffff168152602001908152602001600020819055508080600101915050611b56565b506000600881905550565b60008073ffffffffffffffffffffffffffffffffffffffff16600160009054906101000a900473ffffffffffffffffffffffffffffffffffffffff1673ffffffffffffffffffffffffffffffffffffffff161480611c8157506000611c7f600160009054906101000a900473ffffffffffffffffffffffffffffffffffffffff166123a8565b145b15611c9257611c9060006123b3565b505b600160009054906101000a900473ffffffffffffffffffffffffffffffffffffffff1673ffffffffffffffffffffffffffffffffffffffff166338cc48316040518163ffffffff167c0100000000000000000000000000000000000000000000000000000000028152600401602060405180830381600087803b158015611d1857600080fd5b505af1158015611d2c573d6000803e3d6000fd5b505050506040513d6020811015611d4257600080fd5b810190808051906020019092919050505073ffffffffffffffffffffffffffffffffffffffff166000809054906101000a900473ffffffffffffffffffffffffffffffffffffffff1673ffffffffffffffffffffffffffffffffffffffff16141515611ea957600160009054906101000a900473ffffffffffffffffffffffffffffffffffffffff1673ffffffffffffffffffffffffffffffffffffffff166338cc48316040518163ffffffff167c0100000000000000000000000000000000000000000000000000000000028152600401602060405180830381600087803b158015611e2e57600080fd5b505af1158015611e42573d6000803e3d6000fd5b505050506040513d6020811015611e5857600080fd5b81019080805190602001909291905050506000806101000a81548173ffffffffffffffffffffffffffffffffffffffff021916908373ffffffffffffffffffffffffffffffffffffffff1602179055505b6000809054906101000a900473ffffffffffffffffffffffffffffffffffffffff1673ffffffffffffffffffffffffffffffffffffffff1663abaa5f3e6040518163ffffffff167c010000000000000000000000000000000000000000000000000000000002815260040160206040518083038186803b158015611f2c57600080fd5b505afa158015611f40573d6000803e3d6000fd5b505050506040513d6020811015611f5657600080fd5b8101908080519060200190929190505050905090565b60606000828501905080845110151515611f8557600080fd5b600086602001905060008460200190505b868860200101821015611fbe5781890151808288015250602082019150602081019050611f96565b85935050505095945050505050565b60008073ffffffffffffffffffffffffffffffffffffffff16600160009054906101000a900473ffffffffffffffffffffffffffffffffffffffff1673ffffffffffffffffffffffffffffffffffffffff16148061205557506000612053600160009054906101000a900473ffffffffffffffffffffffffffffffffffffffff166123a8565b145b156120665761206460006123b3565b505b600160009054906101000a900473ffffffffffffffffffffffffffffffffffffffff1673ffffffffffffffffffffffffffffffffffffffff166338cc48316040518163ffffffff167c0100000000000000000000000000000000000000000000000000000000028152600401602060405180830381600087803b1580156120ec57600080fd5b505af1158015612100573d6000803e3d6000fd5b505050506040513d602081101561211657600080fd5b810190808051906020019092919050505073ffffffffffffffffffffffffffffffffffffffff166000809054906101000a900473ffffffffffffffffffffffffffffffffffffffff1673ffffffffffffffffffffffffffffffffffffffff1614151561227d57600160009054906101000a900473ffffffffffffffffffffffffffffffffffffffff1673ffffffffffffffffffffffffffffffffffffffff166338cc48316040518163ffffffff167c0100000000000000000000000000000000000000000000000000000000028152600401602060405180830381600087803b15801561220257600080fd5b505af1158015612216573d6000803e3d6000fd5b505050506040513d602081101561222c57600080fd5b81019080805190602001909291905050506000806101000a81548173ffffffffffffffffffffffffffffffffffffffff021916908373ffffffffffffffffffffffffffffffffffffffff1602179055505b606060046040519080825280602002602001820160405280156122b457816020015b606081526020019060019003908161229f5790505b5090508360006004811015156122c657fe5b60200201518160008151811015156122da57fe5b906020019060200201819052508360016004811015156122f657fe5b602002015181600181518110151561230a57fe5b9060200190602002018190525083600260048110151561232657fe5b602002015181600281518110151561233a57fe5b9060200190602002018190525083600360048110151561235657fe5b602002015181600381518110151561236a57fe5b90602001906020020181905250612382858285612c4b565b9150509392505050565b8060036000848152602001908152602001600020819055505050565b6000813b9050919050565b60006123bd613220565b9050919050565b606060028054600181600116156101000203166002900480601f01602080910402602001604051908101604052809291908181526020018280546001816001161561010002031660029004801561245c5780601f106124315761010080835404028352916020019161245c565b820191906000526020600020905b81548152906001019060200180831161243f57829003601f168201915b5050505050905090565b6000806020600287604581518110151561247c57fe5b9060200101517f010000000000000000000000000000000000000000000000000000000000000090047f0100000000000000000000000000000000000000000000000000000000000000027f0100000000000000000000000000000000000000000000000000000000000000900460ff1601604401019050606060206040519080825280601f01601f19166020018201604052801561252a5781602001600182028038833980820191505090505b50905061253c87836020846000611f6c565b50600284876040516020018083805190602001908083835b6020831015156125795780518252602082019150602081019050602083039250612554565b6001836020036101000a038019825116818451168082178552505050505050905001828152602001925050506040516020818303038152906040526040518082805190602001908083835b6020831015156125e957805182526020820191506020810190506020830392506125c4565b6001836020036101000a038019825116818451168082178552505050505050905001915050602060405180830381855afa15801561262b573d6000803e3d6000fd5b5050506040513d602081101561264057600080fd5b81019080805190602001909291905050506040516020018082815260200191505060405160208183030381529060405280519060200120818051906020012014151561269157600092505050612c43565b6060600288600160498601018151811015156126a957fe5b9060200101517f010000000000000000000000000000000000000000000000000000000000000090047f0100000000000000000000000000000000000000000000000000000000000000027f0100000000000000000000000000000000000000000000000000000000000000900460ff16016040519080825280601f01601f19166020018201604052801561274d5781602001600182028038833980820191505090505b50905061276288604985018351846000611f6c565b506128916002826040518082805190602001908083835b60208310151561279e5780518252602082019150602081019050602083039250612779565b6001836020036101000a038019825116818451168082178552505050505050905001915050602060405180830381855afa1580156127e0573d6000803e3d6000fd5b5050506040513d60208110156127f557600080fd5b8101908080519060200190929190505050878a6008602088010181518110151561281b57fe5b9060200101517f010000000000000000000000000000000000000000000000000000000000000090047f0100000000000000000000000000000000000000000000000000000000000000027f0100000000000000000000000000000000000000000000000000000000000000900460ff16613777565b15156128a35760009350505050612c43565b606060296040519080825280601f01601f1916602001820160405280156128d95781602001600182028038833980820191505090505b5090506128ee89602086016029846000611f6c565b506060604080519080825280601f01601f1916602001820160405280156129245781602001600182028038833980820191505090505b509050600060418451602960208901010101905061294a8b604083036040856000611f6c565b5060006002836040518082805190602001908083835b6020831015156129855780518252602082019150602081019050602083039250612960565b6001836020036101000a038019825116818451168082178552505050505050905001915050602060405180830381855afa1580156129c7573d6000803e3d6000fd5b5050506040513d60208110156129dc57600080fd5b8101908080519060200190929190505050905083816040516020018083805190602001908083835b602083101515612a295780518252602082019150602081019050602083039250612a04565b6001836020036101000a0380198251168184511680821785525050505050509050018281526020019250505060405160208183030381529060405280519060200120600360008d8152602001908152602001600020541415612aa157600360008c815260200190815260200160002060009055612ab1565b6000975050505050505050612c43565b606060496040519080825280601f01601f191660200182016040528015612ae75781602001600182028038833980820191505090505b509050612af98d896049846000611f6c565b50612ba46002826040518082805190602001908083835b602083101515612b355780518252602082019150602081019050602083039250612b10565b6001836020036101000a038019825116818451168082178552505050505050905001915050602060405180830381855afa158015612b77573d6000803e3d6000fd5b5050506040513d6020811015612b8c57600080fd5b8101908080519060200190929190505050878661388e565b1515612bbb57600098505050505050505050612c43565b6004600083815260200190815260200160002060009054906101000a900460ff161515612c1757612bec8d84613b12565b6004600084815260200190815260200160002060006101000a81548160ff0219169083151502179055505b6004600083815260200190815260200160002060009054906101000a900460ff16985050505050505050505b949350505050565b60008073ffffffffffffffffffffffffffffffffffffffff16600160009054906101000a900473ffffffffffffffffffffffffffffffffffffffff1673ffffffffffffffffffffffffffffffffffffffff161480612cd357506000612cd1600160009054906101000a900473ffffffffffffffffffffffffffffffffffffffff166123a8565b145b15612ce457612ce260006123b3565b505b600160009054906101000a900473ffffffffffffffffffffffffffffffffffffffff1673ffffffffffffffffffffffffffffffffffffffff166338cc48316040518163ffffffff167c0100000000000000000000000000000000000000000000000000000000028152600401602060405180830381600087803b158015612d6a57600080fd5b505af1158015612d7e573d6000803e3d6000fd5b505050506040513d6020811015612d9457600080fd5b810190808051906020019092919050505073ffffffffffffffffffffffffffffffffffffffff166000809054906101000a900473ffffffffffffffffffffffffffffffffffffffff1673ffffffffffffffffffffffffffffffffffffffff16141515612efb57600160009054906101000a900473ffffffffffffffffffffffffffffffffffffffff1673ffffffffffffffffffffffffffffffffffffffff166338cc48316040518163ffffffff167c0100000000000000000000000000000000000000000000000000000000028152600401602060405180830381600087803b158015612e8057600080fd5b505af1158015612e94573d6000803e3d6000fd5b505050506040513d6020811015612eaa57600080fd5b81019080805190602001909291905050506000806101000a81548173ffffffffffffffffffffffffffffffffffffffff021916908373ffffffffffffffffffffffffffffffffffffffff1602179055505b60008060009054906101000a900473ffffffffffffffffffffffffffffffffffffffff1673ffffffffffffffffffffffffffffffffffffffff16632ef3accc86856040518363ffffffff167c01000000000000000000000000000000000000000000000000000000000281526004018080602001838152602001828103825284818151815260200191508051906020019080838360005b83811015612fad578082015181840152602081019050612f92565b50505050905090810190601f168015612fda5780820380516001836020036101000a031916815260200191505b509350505050602060405180830381600087803b158015612ffa57600080fd5b505af115801561300e573d6000803e3d6000fd5b505050506040513d602081101561302457600080fd5b81019080805190602001909291905050509050823a02670de0b6b3a764000001811115613058576000600102915050613219565b60606130638561407b565b90506000809054906101000a900473ffffffffffffffffffffffffffffffffffffffff1673ffffffffffffffffffffffffffffffffffffffff1663c55c1cb68360008985896040518663ffffffff167c0100000000000000000000000000000000000000000000000000000000028152600401808581526020018060200180602001848152602001838103835286818151815260200191508051906020019080838360005b83811015613123578082015181840152602081019050613108565b50505050905090810190601f1680156131505780820380516001836020036101000a031916815260200191505b50838103825285818151815260200191508051906020019080838360005b8381101561318957808201518184015260208101905061316e565b50505050905090810190601f1680156131b65780820380516001836020036101000a031916815260200191505b5096505050505050506020604051808303818588803b1580156131d857600080fd5b505af11580156131ec573d6000803e3d6000fd5b50505050506040513d602081101561320357600080fd5b8101908080519060200190929190505050925050505b9392505050565b600080613240731d3b2638a7cc9f2cb3d298a3da7a90b67e5506ed6123a8565b11156132e257731d3b2638a7cc9f2cb3d298a3da7a90b67e5506ed600160006101000a81548173ffffffffffffffffffffffffffffffffffffffff021916908373ffffffffffffffffffffffffffffffffffffffff1602179055506132d96040805190810160405280600b81526020017f6574685f6d61696e6e65740000000000000000000000000000000000000000008152506140ff565b60019050613774565b600061330173c03a2615d5efaf5f49f60b7bb6583eaec212fdf16123a8565b11156133a35773c03a2615d5efaf5f49f60b7bb6583eaec212fdf1600160006101000a81548173ffffffffffffffffffffffffffffffffffffffff021916908373ffffffffffffffffffffffffffffffffffffffff16021790555061339a6040805190810160405280600c81526020017f6574685f726f707374656e3300000000000000000000000000000000000000008152506140ff565b60019050613774565b60006133c273b7a07bcf2ba2f2703b24c0691b5278999c59ac7e6123a8565b11156134645773b7a07bcf2ba2f2703b24c0691b5278999c59ac7e600160006101000a81548173ffffffffffffffffffffffffffffffffffffffff021916908373ffffffffffffffffffffffffffffffffffffffff16021790555061345b6040805190810160405280600981526020017f6574685f6b6f76616e00000000000000000000000000000000000000000000008152506140ff565b60019050613774565b600061348373146500cfd35b22e4a392fe0adc06de1a1368ed486123a8565b11156135255773146500cfd35b22e4a392fe0adc06de1a1368ed48600160006101000a81548173ffffffffffffffffffffffffffffffffffffffff021916908373ffffffffffffffffffffffffffffffffffffffff16021790555061351c6040805190810160405280600b81526020017f6574685f72696e6b6562790000000000000000000000000000000000000000008152506140ff565b60019050613774565b600061354473a2998efd205fb9d4b4963afb70778d6354ad3a416123a8565b11156135e65773a2998efd205fb9d4b4963afb70778d6354ad3a41600160006101000a81548173ffffffffffffffffffffffffffffffffffffffff021916908373ffffffffffffffffffffffffffffffffffffffff1602179055506135dd6040805190810160405280600a81526020017f6574685f676f65726c69000000000000000000000000000000000000000000008152506140ff565b60019050613774565b6000613605736f485c8bf6fc43ea212e93bbf8ce046c7f1cb4756123a8565b111561366957736f485c8bf6fc43ea212e93bbf8ce046c7f1cb475600160006101000a81548173ffffffffffffffffffffffffffffffffffffffff021916908373ffffffffffffffffffffffffffffffffffffffff16021790555060019050613774565b60006136887320e12a1f859b3feae5fb2a0a32c18f5a65555bbf6123a8565b11156136ec577320e12a1f859b3feae5fb2a0a32c18f5a65555bbf600160006101000a81548173ffffffffffffffffffffffffffffffffffffffff021916908373ffffffffffffffffffffffffffffffffffffffff16021790555060019050613774565b600061370b7351efaf4c8b3c9afbd5ab9f4bbc82784ab6ef8faa6123a8565b111561376f577351efaf4c8b3c9afbd5ab9f4bbc82784ab6ef8faa600160006101000a81548173ffffffffffffffffffffffffffffffffffffffff021916908373ffffffffffffffffffffffffffffffffffffffff16021790555060019050613774565b600090505b90565b6000806001905082845114151561378d57600080fd5b60008090505b838110156138825784818151811015156137a957fe5b9060200101517f010000000000000000000000000000000000000000000000000000000000000090047f0100000000000000000000000000000000000000000000000000000000000000027effffffffffffffffffffffffffffffffffffffffffffffffffffffffffffff1916868260208110151561382457fe5b1a7f0100000000000000000000000000000000000000000000000000000000000000027effffffffffffffffffffffffffffffffffffffffffffffffffffffffffffff191614151561387557600091505b8080600101915050613793565b50809150509392505050565b6000806000806000606060206040519080825280601f01601f1916602001820160405280156138cc5781602001600182028038833980820191505090505b509050600060208960038151811015156138e257fe5b9060200101517f010000000000000000000000000000000000000000000000000000000000000090047f0100000000000000000000000000000000000000000000000000000000000000027f0100000000000000000000000000000000000000000000000000000000000000900460ff1603600401905061396889826020856000611f6c565b9150606060206040519080825280601f01601f1916602001820160405280156139a05781602001600182028038833980820191505090505b509050602282019150613a3e8a60208c600186038151811015156139c057fe5b9060200101517f010000000000000000000000000000000000000000000000000000000000000090047f0100000000000000000000000000000000000000000000000000000000000000027f0100000000000000000000000000000000000000000000000000000000000000900460ff160384016020846000611f6c565b90506020830151945060208101519350613a5b8b601b8787614119565b80975081985050508573ffffffffffffffffffffffffffffffffffffffff1689805190602001206001900473ffffffffffffffffffffffffffffffffffffffff161415613ab2576001975050505050505050613b0b565b613abf8b601c8787614119565b80975081985050508573ffffffffffffffffffffffffffffffffffffffff1689805190602001206001900473ffffffffffffffffffffffffffffffffffffffff16149750505050505050505b9392505050565b600080606060028560018601815181101515613b2a57fe5b9060200101517f010000000000000000000000000000000000000000000000000000000000000090047f0100000000000000000000000000000000000000000000000000000000000000027f0100000000000000000000000000000000000000000000000000000000000000900460ff16016040519080825280601f01601f191660200182016040528015613bce5781602001600182028038833980820191505090505b509050613be085858351846000611f6c565b506060604080519080825280601f01601f191660200182016040528015613c165781602001600182028038833980820191505090505b509050613c298660046040846000611f6c565b50606060626040519080825280601f01601f191660200182016040528015613c605781602001600182028038833980820191505090505b50905060017f010000000000000000000000000000000000000000000000000000000000000002816000815181101515613c9657fe5b9060200101907effffffffffffffffffffffffffffffffffffffffffffffffffffffffffffff1916908160001a905350613cd887604188036041846001611f6c565b5060606040805190810160405280602081526020017ffd94fa71bc0ba10d39d464d0d8f465efeef0a2764e3887fcc9df41ded20f505c8152509050613d238160006020856042611f6c565b50613dce6002836040518082805190602001908083835b602083101515613d5f5780518252602082019150602081019050602083039250613d3a565b6001836020036101000a038019825116818451168082178552505050505050905001915050602060405180830381855afa158015613da1573d6000803e3d6000fd5b5050506040513d6020811015613db657600080fd5b8101908080519060200190929190505050858561388e565b9450841515613de557600095505050505050614075565b60608060405190810160405280604081526020017f7fb956469c5c9b89840d55b43537e66a98dd4811ea0a27224272c2e5622911e881526020017f537a2f8e86a46baec82864e98dd01e9ccc2f8bc5dfc9cbe5a91a290498dd96e48152509050606060426040519080825280601f01601f191660200182016040528015613e7b5781602001600182028038833980820191505090505b50905060fe7f010000000000000000000000000000000000000000000000000000000000000002816000815181101515613eb157fe5b9060200101907effffffffffffffffffffffffffffffffffffffffffffffffffffffffffffff1916908160001a905350613ef18a60036041846001611f6c565b50606060028b6045815181101515613f0557fe5b9060200101517f010000000000000000000000000000000000000000000000000000000000000090047f0100000000000000000000000000000000000000000000000000000000000000027f0100000000000000000000000000000000000000000000000000000000000000900460ff16016040519080825280601f01601f191660200182016040528015613fa95781602001600182028038833980820191505090505b509050613fbc8b60448351846000611f6c565b506140676002836040518082805190602001908083835b602083101515613ff85780518252602082019150602081019050602083039250613fd3565b6001836020036101000a038019825116818451168082178552505050505050905001915050602060405180830381855afa15801561403a573d6000803e3d6000fd5b5050506040513d602081101561404f57600080fd5b8101908080519060200190929190505050828561388e565b975087985050505050505050505b92915050565b606061408561415d565b61408d61455e565b61409981610400614169565b6140a2816141b9565b60008090505b83518110156140e8576140db84828151811015156140c257fe5b90602001906020020151836141c790919063ffffffff16565b80806001019150506140a8565b506140f2816141ec565b8060000151915050919050565b8060029080519060200190614115929190614578565b5050565b60008060008060405188815287602082015286604082015285606082015260208160808360006001610bb8f192508051915050818193509350505094509492505050565b60405180590338823950565b6000819050600060208281151561417c57fe5b061415156141995760208181151561419057fe5b06602003810190505b808360200181815250506040518084526000815281810160405250505050565b6141c48160046141fa565b50565b6141d4826002835161421e565b6141e7818361437790919063ffffffff16565b505050565b6141f78160076141fa565b50565b61421a601f60058360ff169060020a02178361442490919063ffffffff16565b5050565b60178111151561424f5761424a8160058460ff169060020a0260ff16178461442490919063ffffffff16565b614372565b60ff8111151561429557614279601860058460ff169060020a02178461442490919063ffffffff16565b61428f816001856144649092919063ffffffff16565b50614371565b61ffff811115156142dc576142c0601960058460ff169060020a02178461442490919063ffffffff16565b6142d6816002856144649092919063ffffffff16565b50614370565b63ffffffff8111151561432557614309601a60058460ff169060020a02178461442490919063ffffffff16565b61431f816004856144649092919063ffffffff16565b5061436f565b67ffffffffffffffff8111151561436e57614356601b60058460ff169060020a02178461442490919063ffffffff16565b61436c816008856144649092919063ffffffff16565b505b5b5b5b5b505050565b61437f61455e565b826020015183600001515183510111156143af576143ae8360026143a8866020015186516144cb565b026144e7565b5b60008060008451905085518051602081830101945086518101825260208701935050505b6020811015156143f857815183526020830192506020820191506020810390506143d3565b60006001826020036101000a039050801983511681855116818117865250508694505050505092915050565b8160200151600183600001515101111561444a576144498260028460200151026144e7565b5b815180516020818301018381536001820183525050505050565b61446c61455e565b83602001518460000151518301111561449a576144998460026144938760200151866144cb565b026144e7565b5b60006001836101000a0390508451805184818301018684198251161781528582018352505050849150509392505050565b6000818311156144dd578290506144e1565b8190505b92915050565b6060826000015190506144fa8383614169565b6145048382614377565b50505050565b6080604051908101604052806004905b606081526020019060019003908161451a5790505090565b8154818355818111156145595781836000526020600020918201910161455891906145f8565b5b505050565b604080519081016040528060608152602001600081525090565b828054600181600116156101000203166002900490600052602060002090601f016020900481019282601f106145b957805160ff19168380011785556145e7565b828001600101855582156145e7579182015b828111156145e65782518255916020019190600101906145cb565b5b5090506145f491906145f8565b5090565b61461a91905b808211156146165760008160009055506001016145fe565b5090565b9056fea165627a7a723058200ee6eb78f0fc2fbb2f636e54aa6fb41a5026e935953cca7ab0a832e1ccb66b050029",
  "source": "pragma solidity ^0.5.0;\n\nimport \"./usingProvable.sol\";\n\ncontract Casino is usingProvable {\n    // TODO: Contract fields\n    address public owner;\n    uint256 public minimumBet = 0.1 ether;\n    uint256 public maximumBets = 10 ether;\n    uint256 public numberOfBets;\n    uint256 public maxNumberOfBets = 100;\n    uint256 public winningNumber;\n\n    address[] public players;\n    mapping(address => uint256) public playerBets;\n    mapping(uint256 => address payable[]) public bets;\n\n    event generatedRandomNumber(string randomNumber);\n    event LogNewProvableQuery(string description);\n\n    constructor(uint256 _minimumBet, uint256 _maxNumberOfBets) public {\n        // TODO: Implementation\n        owner = msg.sender;\n\n        if (_minimumBet > 0) {\n            minimumBet = _minimumBet;\n        }\n\n        if (_maxNumberOfBets > 0) {\n            maxNumberOfBets = _maxNumberOfBets;\n        }\n\n        provable_setProof(proofType_Ledger);\n    }\n\n    function bet(uint256 numberToBet) public payable {\n        // TODO: Implementation\n        require(numberOfBets < maxNumberOfBets, \"Bet table is full.\");\n        require(\n            numberToBet >= 1 && numberToBet <= 10,\n            \"Choose a bet number between 1 and 10.\"\n        );\n        require(\n            msg.value >= minimumBet,\n            \"Bet is lesser than specified minimum bet.\"\n        );\n        require(\n            playerBets[msg.sender] == 0,\n            \"You are not allowed to change your bet.\"\n        );\n\n        playerBets[msg.sender] = numberToBet;\n        bets[numberToBet].push(msg.sender);\n        players.push(msg.sender);\n\n        numberOfBets += 1;\n\n        if (numberOfBets >= maxNumberOfBets) {\n            generateWinningNumber();\n        }\n    }\n\n    function generateWinningNumber() public payable {\n        // TODO: Implementation\n        uint256 delay = 0;\n        uint256 numberRandomBytes = 7;\n        uint256 callbackGasLimit = 400000;\n\n        provable_newRandomDSQuery(delay, numberRandomBytes, callbackGasLimit);\n        emit LogNewProvableQuery(\n            \"Provable query was sent, standing by for the answer...\"\n        );\n    }\n\n    function __callback(\n        bytes32 _queryID,\n        string memory _result,\n        bytes memory _proof\n    ) public {\n        // TODO: Implementation\n        require(msg.sender == provable_cbAddress(), \"Bad callback\");\n        require(\n            provable_randomDS_proofVerify__returnCode(\n                _queryID,\n                _result,\n                _proof\n            ) == 0,\n            \"Bad Proof\"\n        );\n        emit generatedRandomNumber(_result);\n\n        bytes32 encodedRandom = keccak256(abi.encodePacked(_result));\n        winningNumber = (uint256(encodedRandom) % 10) + 1;\n        distributePrizes();\n    }\n\n    function distributePrizes() public {\n        // TODO: Implementation\n        if (bets[winningNumber].length != 0) {\n            uint256 prize = address(this).balance / bets[winningNumber].length;\n\n            for (\n                uint256 index = 0;\n                index < bets[winningNumber].length;\n                index++\n            ){\n                address payable winner = bets[winningNumber][index];\n                winner.transfer(prize);\n            }\n            resetBets();\n        }\n    }\n\n    function resetBets() private {\n        // TODO: Implementation\n        for (uint256 index = 1; index <= 10; index++) {\n            bets[index].length = 0;\n        }\n        for (uint256 index = 0; index < players.length; index++) {\n            playerBets[players[index]] = 0;\n        }\n        numberOfBets = 0;\n    }\n\n    function getContractBalance() public view returns(uint256 balance) {\n        // TODO: Implementation\n        return address(this).balance;\n    }\n}\n",
  "sourcePath": "/Users/Beth/decentralized-casino/contracts/Casino.sol",
  "compiler": {
    "name": "solc",
    "version": "0.5.0+commit.1d4f565a.Emscripten.clang"
  },
  "schemaVersion": "3.0.23",
  "updatedAt": "2020-04-21T10:46:53.495Z",
  "networkType": "ethereum",
  "devdoc": {
    "methods": {
      "__callback(bytes32,string)": {
        "details": "The following `__callback` functions are just placeholders ideally     meant to be defined in child contract when proofs are used.     The function bodies simply silence compiler warnings."
      }
    }
  },
  "userdoc": {
    "methods": {}
  }
}